:100000000C946F030C94B6030C94B6030C94B603D3
:100010000C94B6030C94B6030C94B6030C94B6037C
:100020000C94B6030C94B6030C94B8270C948E2849
:100030000C9487210C94B6030C94B6030C94B6036D
:100040000C94B6030C94B6030C94B6030C94B6034C
:100050000C94B6030C94AE210C94B6030C94B60326
:100060000C94B6030C94B6030C94B6030C94B6032C
:100070000C94B6030C94B6030C94B6030C94B6031C
:100080000C94B6030C94B6030C94B6030C94B6030C
:100090000C94B6030C94B6030C94B6030C94B603FC
:1000A0000C94B6030C94B6030C94B6030501090234
:1000B000A10185020901A1000509190129081500FE
:1000C0002501950875018102050109300931158165
:1000D000257F95027508810609381581257F9501D0
:1000E00075088106050C0A38021581257F95017572
:1000F000088106C0C005010980A101850319012AF4
:10010000B700150126B700950175108100C0050CD8
:100110000901A101850419012AA002150126A002E6
:10012000950175108100C005010906A1018505052D
:100130000719E029E71500250195087501810205D9
:1001400007190029EF1500250195F07501810205B9
:10015000081901290595057501910295017503910D
:1001600001C00660FF0961A1010962150026FF00B8
:100170009520750881020963150026FF00952075FA
:10018000089102C005010906A101050719E029E748
:1001900015002501950875018102950175088101F9
:1001A0000507190029FF150026FF0095067508812F
:1001B000000508190129059505750191029501753C
:1001C000039101C009025B00030100A0FA090400C9
:1001D0000001030101000921110100012240000773
:1001E00005810308000A0904010002030000000958
:1001F00021110100012222000705820320000107CE
:1002000005030320000109040200010300000009A6
:10021000211101000122B6000705840320000A1203
:10022000011001000000084D594D6001000102005D
:10023000010E0359004400360030004D005100000B
:10024000000A0359004D0044004B0000000403095C
:10025000041E0F0500047F3F1F64321464321478BB
:100260003C1E1E140A0500000000000000000000F3
:10027000000000000000000000000000000000007E
:10028000000000000000000000007E0F00D4FFFF0F
:10029000FFC70000007800000000000000002A2BCB
:1002A0002800000000000000000000000000000026
:1002B0000029000000002C1E34202122243426278F
:1002C000252E362D3738271E1F20212223242526B0
:1002D0003333362E37381F0405060708090A0B0C7E
:1002E0000D0E0F101112131415161718191A1B1CC6
:1002F0001D2F3130232D350405060708090A0B0C84
:100300000D0E0F101112131415161718191A1B1CA5
:100310001D2F3130354C165C1E001F0020002100BF
:100320002200230024002500260027002D002E0097
:1003300035002A002B0014001A00080015001700D1
:100340001C0018000C00120013002F0030003100B8
:100350000000394104001600070009000A000B00E4
:100360000D000E000F0033003400320028000000A2
:10037000E10064001D001B000600190005001100CB
:100380001000360037003800E50052004C00E00055
:10039000E300E20001510000000000002C000151C8
:1003A000E6006541500051004F000000005C3A003B
:1003B0003B003C003D003E003F0040004100420049
:1003C00043004400450001004C000100C25CC35CD6
:1003D000C65CC55CC85CC75CCA5CC95C0100460001
:1003E00047004800350000000100BF5CBD5CBE5CFA
:1003F000C15C010001000100AC00AE00AB000100D7
:1004000001000100000001000100010001000100E5
:10041000010001000100A800AA00A900025101008A
:100420004B0001000100010001000100000000007C
:10043000000001000100010001004D004E004A00D3
:1004400000000100010001000100010001000100A5
:100450000100010001000100010001000100010094
:1004600001000100A70001000100010001000100DE
:1004700001000100A50001000100010000000100D1
:100480000100A600010001000100010001000100BF
:100490000100010001000100010000000100010055
:1004A0000100010001000100010001000100010044
:1004B0000100010001000100010001000100010034
:1004C0000100000000000000010001000100010027
:1004D00001000100010000002223252628292A2CE2
:1004E0002D2F3032333536383A3B3D3E404243457E
:1004F00047494A4C4E5051535557595A5C5E6062B9
:10050000646668696B6D6F71737577797B7D7F81C8
:10051000838587898A8C8E90929496989A9C9E9FC8
:10052000A1A3A5A7A8AAACAEAFB1B3B4B6B8B9BBE6
:10053000BCBEBFC1C2C3C5C6C7C9CACBCCCDCED055
:10054000D1D2D2D3D4D5D6D7D7D8D9D9DADADBDB42
:10055000DBDCDCDCDCDCDDDDDDDDDCDCDCDCDCDBD9
:10056000DBDBDADAD9D9D8D7D7D6D5D4D3D2D2D122
:10057000D0CECDCCCBCAC9C7C6C5C3C2C1BFBEBC15
:10058000BBB9B8B6B4B3B1AFAEACAAA8A7A5A3A186
:100590009F9E9C9A98969492908E8C8A8987858348
:1005A000817F7D7B79777573716F6D6B6968666428
:1005B00062605E5C5A5957555351504E4C4A4947F8
:1005C000454342403E3D3B3A3836353332302F2D9D
:1005D0002C2A292826252322FFAA7F554000010125
:1005E00001010101010101020202020202020202F2
:1005F00003030303030303030404040404040405C2
:100600000505050506060606060707070707080885
:100610000808090909090A0A0A0B0B0B0C0C0C0D36
:100620000D0D0E0E0E0F0F0F1010111111121213CF
:10063000131414151516161717181819191A1A1B4A
:100640001B1C1D1D1E1E1F202021222223242425A9
:100650002626272829292A2B2C2D2D2E2F303132E2
:1006600032333435363738393A3B3C3D3E3F4041F2
:1006700042434445464748494A4C4D4E4F505153DA
:1006800054555658595A5B5D5E5F61626465666891
:10069000696B6C6D6F7072737577787A7B7D7E8015
:1006A00082838587888A8C8E8F91939596989A9C61
:1006B0009EA0A2A3A5A7A9ABADAFB1B3B5B7BABC75
:1006C000BEC0C2C4C6C9CBCDCFD1D4D6D8DBDDDF46
:1006D000E2E4E7E9EBEEF0F3F5F8FAFDFF001124B0
:1006E0001FBECFEFDAE0DEBFCDBF04B603FE27C0EA
:1006F0008091190390911A03A0911B03B0911C03E0
:100700008730904BA740B04BD1F410921903109250
:100710001A0310921B0310921C0314BE84B7877F28
:1007200084BF0FB6F894A89580916000886180938B
:100730006000109260000FBEE0E0F8E3099523E04E
:10074000AEE9B1E001C01D92A931B207E1F711E0B5
:10075000A0E0B1E0E6E9F5E502C005900D92AE3902
:10076000B107D9F70E94D2210C94702A0C94000092
:1007700081FD02C08C9A08958C980895909117037A
:1007800092FF06C0282F28712830F9F4877F8460F3
:1007900093FF06C0282F28712831F1F4877E8461E9
:1007A0002091180320FF06C0382F38713830D9F453
:1007B000877F816021FF06C0282F28712831D1F45E
:1007C000877E816194FD877E0895282F24712430CF
:1007D000F9F68B7F8860DCCF282F2471243101F754
:1007E0008B7E8861DDCF382F3171313019F78E7FE4
:1007F0008860E0CF282F2171213121F78E7E88611A
:10080000E1CFF894E82FE295EF70A1E2AE0FB0E0EF
:100810004C918F7021E030E0B90102C0660F771F64
:100820008A95E2F7CB01962F909594239C93EE5DE9
:10083000F0E09081892B8083789408958091FF0265
:1008400080FD14C081FD14C082FD16C08091FE029F
:10085000882381F0843180F422E3829FC001112437
:1008600064E170E00E941029862F08958CE00895BD
:1008700089E1089585E0089582E308958091FF025B
:1008800080FD16C081FD16C082FD16C08091FD025C
:100890008823A1F0883280F428E0829FC0011124CF
:1008A00068E270E00E941029862F672B39F00895C6
:1008B00082E0089584E0089588E0089581E0089535
:1008C000803F31F40E941E0481958093FA020895BE
:1008D000813F19F40E941E04F8CF823F31F40E9438
:1008E0001E0481958093F9020895833F19F40E94B4
:1008F0001E04F8CF893F29F40E943E048093FB0236
:1009000008958A3F21F40E943E048195F7CF8B3FE2
:1009100031F40E943E0481958093FC0208958C3F3F
:1009200019F40E943E04F8CF9CE0980F953070F4C3
:10093000845F990B21E030E001C0220F8A95EAF72D
:100940008091F802822B8093F80208958D3F31F454
:100950008091FF0281608093FF0208958E3F21F411
:100960008091FF028260F7CF8F3FB9F78091FF023D
:100970008460F1CF4091F902803F59F48091FA02EE
:1009800087FF0DC01092FA0241110BC01092FE02B7
:1009900008C0813F81F48091FA0218169CF3442329
:1009A00081F08091FB029091FC02892B09F05AC0E2
:1009B0001092FD020895823F49F447FFF0CF109254
:1009C000F9028091FA028111ECCFE0CF833F19F454
:1009D0001416ACF3E4CF9091FB02893F29F4191669
:1009E000F4F61092FB02DBCF8A3F19F497FFD7CFC2
:1009F000F8CF9091FC028B3F29F497FFD0CF109253
:100A0000FC02CDCF8C3F19F41916CCF3C8CF9CE073
:100A1000980F953090F4845F990B21E030E0B90194
:100A200002C0660F771F8A95E2F7CB0180959091FF
:100A3000F80289238093F802B2CF8D3F31F4809180
:100A4000FF028E7F8093FF02AACF8E3F21F4809118
:100A5000FF028D7FF7CF8F3F09F0A1CF8091FF027A
:100A60008B7FF0CF08958F929F92AF92BF92CF92DB
:100A7000DF92EF92FF920F931F93CF93DF93D82EC5
:100A8000C62EE901E42FF0E0E352FA4F611113C0E2
:100A90004491942FE42FE98348839A83DF91CF9187
:100AA0001F910F91FF90EF90DF90CF90BF90AF908C
:100AB0009F908F900895062F10E0E49186E0D89ED5
:100AC000700111242FEF30E0C701B9010E94FC280A
:100AD0008D2D90E0880F991FF5E5F69FA001F79FF7
:100AE000500D1124841B950B982F990F890FA90184
:100AF000401B510BE49FD001E59FB00D11244B2FFB
:100B0000C89E60011124CD2CDD245901AC18BD080C
:100B1000EA9D6001EB9DD00C11249D2D4901881A9E
:100B20009108809E5001819EB00C909EB00C1124C3
:100B3000AB2CBB242A193B09E29F8001E39F100DD7
:100B4000112463307105D1F08CEFE81683E0F806CC
:100B500070F461307105B1F062307105B9F08FEF5A
:100B6000E816F10408F097CF9B2F412F94CF643003
:100B7000710579F066307105B9F38DCF4D2D9E2F3B
:100B8000EB2F89CF4E2FED2D9B2F85CF912F4E2F01
:100B9000F7CF9E2FE12F7FCF8091EC02982F9E7F81
:100BA00029F4817082608093EC0208958635E8F321
:100BB00081708465F8CF0895FA0181110994FB01D1
:100BC000FDCFCF93DF93CDB7DEB728970FB6F8945C
:100BD000DEBF0FBECDBF863050F5811129C0909188
:100BE0008000977F909380002F98282F30E0AFEF00
:100BF000BFEF0E94612A25E030E040E050E00E9413
:100C00003F2AC9012C3764E13607C0F469E070E07F
:100C10000E94FC2870938D0060938C0028960FB67C
:100C2000F894DEBF0FBECDBFDF91CF91089585E070
:100C300090918000986090938000D7CF2A50374DD4
:100C40004F4F5F4FB42FA32F922F8827BC01CD01A8
:100C500025EF38E241E050E00E943F2A29833A83A1
:100C60004B835C83CA01B9010E94D2289B01AC016D
:100C700069817A818B819C810E94D228BB27A92F10
:100C8000982F872FBC010097A140B10519F66FEF8F
:100C90007FEFC0CF282F220F220F220F90918002CA
:100CA0009770922B90938002987F21E009F420E0C6
:100CB0009091800220FB90F9909380020C94E105C2
:100CC000E091F102F091F202309721F00190F08171
:100CD000E02D099480E0089520917E0230917F02FA
:100CE0002817390771F090937F0280937E02E0917C
:100CF000F102F091F202309721F00680F781E02DA9
:100D00000994089520917C0230917D0228173907BB
:100D100071F090937D0280937C02E091F102F0915A
:100D2000F202309721F00084F185E02D09940895B6
:100D30008091450290914402981301C008958F5FFD
:100D40008770FACFE82F2FE0929FE00D11248E2FAD
:100D5000877041E001C0440F8A95EAF7E695E69571
:100D6000E69585E0E89FF0011124ED5FFD4F30E04E
:100D700020E070E05191DF011197CB01022E02C0FB
:100D8000969587950A94E2F781708195852784234B
:100D900085278C932F5F3F4F2530310559F70895F4
:100DA000E82F2FE0929FE00D11249E2F9770E6957B
:100DB000E695E69585E0E89FF0011124ED5FFD4F93
:100DC00050E040E080E0219130E0092E02C03695ED
:100DD00027950A94E2F721703327042E01C0220FD1
:100DE0000A94EAF7822B4F5F5F4F4530510559F760
:100DF000089590910E019923C1F09091170397FFE8
:100E000014C0E82FE695E695E695803FF8F4F0E00B
:100E1000E056FE4F877021E030E001C0220F8A9536
:100E2000EAF78281822B82830895A2EAB1E0EFEF94
:100E300090E02D91821751F0EF3F19F4211101C07C
:100E4000E92F9F5F9630A9F7EF3F09F408950E2E22
:100E5000000CFF0BE056FE4FE6CF90910E01992358
:100E6000E1F09091170397FF18C0E82FE695E695FB
:100E7000E695803FF0F4F0E0E056FE4F877021E009
:100E800030E0A90102C0440F551F8A95E2F7CA015C
:100E900080959281892382830895E2EAF1E091911D
:100EA000891303C0DF0111971C9251E0E83AF5075E
:100EB000B1F7089580913902811110923902089595
:100EC0008091380290914302892B90913502892BB1
:100ED0008093A001909139029923A1F0892B8093EE
:100EE000A00180910E01882341F18091170387FFB3
:100EF00024C08EE1E2EAF1E090E0815000F591112A
:100F00000E945A07E091F102F091F2023097E1F06D
:100F100080910E01882359F08091170387FF07C045
:100F20008091A0018093A10185E08093A0010280BF
:100F3000F381E02D80EA91E0099486E0DBCF2191F6
:100F40002223D9F29F5FD9CF0895882339F0909159
:100F50003802892B809338020C9460070895882307
:100F600041F08095909138028923809338020C9447
:100F70006007089580E008952FB7F8948091FE01EE
:100F80009091FF01A0910002B09101022FBF08953E
:100F90000E94BC072091F9023091FA02232B21F024
:100FA0008093F5029093F6022091FB023091FC02AF
:100FB000232B21F08093F3029093F402E091F1024D
:100FC000F091F202309749F082E08093F7020480BA
:100FD000F581E02D87EF92E009940895882309F4C4
:100FE0004DC0823851F489E30E94F9060E946007DF
:100FF00089E30E942D070C946007833839F483E558
:101000000E94F9060E94600783E5F3CF843839F423
:1010100087E40E94F9060E94600787E4EACF9CEF0C
:10102000980F913A30F390E2980F983088F48770D7
:1010300021E030E0A90102C0440F551F8A95E2F774
:10104000CA01809590913802892380933802D3CFCA
:101050009BE5980F933020F490E080E00C946C06B0
:1010600098E5980F973120F490E080E00C94820688
:10107000803F20F00E94BA040C94C807089590E0C5
:1010800080E00E946C0690E080E00E948206109250
:101090004302109235020E94600786E0E7EFF2E01B
:1010A000DF011D928A95E9F71092FE021092FD026F
:1010B0001092FF020C94C80760933A0270933B02AF
:1010C00080933C0290933D020C943F0860933E0253
:1010D00070933F0280934002909341020C943F082A
:1010E0000F931F93CF93DF9300D000D0CDB7DEB71F
:1010F00041E050E060E070E004C0440F551F661FFF
:10110000771F8A95D2F780913E0290913F02A0917D
:101110004002B09141028A019B01082B192B2A2B16
:101120003B2B09831A832B833C83C901B8010F90A1
:101130000F900F900F90DF91CF911F910F910C9412
:1011400066080F931F93CF93DF9300D000D0CDB7E5
:10115000DEB741E050E060E070E004C0440F551F8E
:10116000661F771F8A95D2F74095509560957095C8
:1011700080913E0290913F02A0914002B0914102C5
:101180008A019B01082319232A233B2309831A83FD
:101190002B833C83C901B8010F900F900F900F90E3
:1011A000DF91CF911F910F910C94660890914202AC
:1011B0008095892380934202282F277071F4282F6D
:1011C000082E000C330B9217130639F08595859580
:1011D00085950E94A1081092420208959C014FB784
:1011E000F8948091FE019091FF01A0910002B091CE
:1011F00001024FBF821B930B08958091FD0108955A
:10120000FC01CB012091CC013091CD01261737078D
:1012100090F0009729F42091E8002E772093E800C1
:1012200040E0009751F4411108C08091E80082FF2E
:1012300031C080E00895C901F3CF2091DC01222361
:10124000A9F12530A9F12091E80023FD2DC02091BE
:10125000E80022FDEACF2091E80020FFE2CF3091A4
:10126000F3002091F200009719F02830310558F072
:1012700041E02830310509F040E02091E8002E7768
:101280002093E800CECF41914093F10001972F5F6A
:101290003F4FE9CF8091DC01882341F0853041F058
:1012A0008091E80083FFC1CF81E0089582E0089536
:1012B00083E008958091C60187FF13C08091E80004
:1012C00082FF06C08091E8008B778093E80004C01D
:1012D0008091DC018111F2CF08958091DC01882397
:1012E000D9F38091E80080FFF8CF8091E8008E77F5
:1012F000ECCF2091E4003091E50095E6A901209122
:10130000EC00822F817020FF06C08091E80080FFF2
:1013100006C080E008952091E80022FD1AC0809167
:10132000DC01882389F0853089F08091EB0085FD10
:101330000FC02091E4003091E50042175307F9F205
:101340009150E1F684E0089582E0089583E00895E5
:1013500081E00895E8EDF0E080818E7F8083109237
:10136000E2001092DA001092E100A0EEB0E08C9161
:1013700081608C9380818F77808319BCA7EDB0E06A
:101380008C918E7F8C9380818F7E80831092C5019B
:101390000895EF92FF920F931F93CF937C018B01DF
:1013A0000E947909C82F811117C08091E80085FD3E
:1013B0000BC08091E8008E778093E8000E94790945
:1013C000882399F3C82F08C0F70181917F0180938A
:1013D000F1000150110949F78C2FCF911F910F9106
:1013E000FF90EF900895CF93DF9300D000D0CDB75A
:1013F000DEB780913E0290913F02A0914002B091F1
:101400004102AC01BD0146705527662777279C0134
:10141000463051056105710591F4AD0128602983BD
:101420003A834B835C8369817A818B819C810F90A5
:101430000F900F900F90DF91CF910C946608AD0143
:10144000277FEDCF982F9093E900242F762F50E03F
:10145000891731F07091EC002091ED005091F0006F
:1014600021FD06C09F5F973071F78093E9000895D2
:101470003091EB003E7F3093EB003091ED003D7FEB
:101480003093ED003091EB0031603093EB007093BE
:10149000EC002093ED005093F0002091EE0027FD2A
:1014A000E1CF0895CF92DF92EF92FF920F931F93B7
:1014B000CF93DF93C8EDD0E088818F7E8883E7EDFE
:1014C000F0E080818160808384E082BF81E080934E
:1014D000C50188818E7F888302EE10E0F8011082BA
:1014E0001092DA0081EEC82ED12CF601108288818C
:1014F0008F77888388818068888388818F7D8883BF
:1015000019BC1092DC011092C4011092DB01109200
:10151000C30190EEE92EF12CF70180818B7F80834F
:1015200088818160888342E060E080E00E94220A36
:10153000F60180818E7F8083F801808181608083C5
:10154000808188608083F70180818E7F808388819D
:1015500080618883DF91CF911F910F91FF90EF9071
:10156000DF90CF900895AF92BF92CF92DF92EF922B
:10157000FF920F931F93CF93DF930BE511E0CDE024
:10158000D3E0C12CD12CEE24E394F12CF80181910D
:101590008F01F894E82FE295EF70A1E2AE0FB0E072
:1015A0002C918F70A70102C0440F551F8A95E2F756
:1015B000CA01922F982B9C93EE5DF0E0908180956C
:1015C00089238083789400C0E0E6F1E030E020E0F9
:1015D000B12CA12C4191A42FA295AF70A05EB0E0D8
:1015E0008C9190E04F7002C0959587954A95E2F7EF
:1015F00080FD46C0C701022E02C0880F991F0A94C1
:10160000E2F7A82AB92A2F5F3F4F2F30310511F793
:10161000F801319780810E94010454E0C51619F049
:1016200080EA8A95F1F788819981A816B90659F15F
:10163000B982A88281E0D82AC3942296E5E0CE122E
:10164000A5CFDD2011F181E0809302030E94BC0749
:101650009093010380930003809100039091010314
:101660000E94EE080697A8F08AE0EDE0F3E0A3E020
:10167000B3E001900D928A95E1F71092020309C040
:1016800080E090E0BECF80E0D6CF80910203811150
:10169000E3CF8D2DDF91CF911F910F91FF90EF90B0
:1016A000DF90CF90BF90AF9008958091EC0280FDC5
:1016B0000AC0E0ECF2E0118210821282339652E00E
:1016C000E43EF507C1F76A9A3EB13B7F2EB1246034
:1016D0004FB7F89480EC92E0FC010196508168E0ED
:1016E0002EB9000000C057FF3EB9550F000000C0E2
:1016F00000C000C03EB900C06A9591F752E0843E38
:10170000950751F74FBF8FE594E00197F1F700C0BF
:10171000000008959091EC0290FF0CC0E0ECF2E024
:10172000818360834283339692E0E43EF907C1F7F8
:101730000C94550B0895CF93DF9300D00F92CDB743
:10174000DEB79091EC0290FF0AC09E012F5F3F4FE1
:101750000E9433054B8169818A810E948A0B0F9018
:101760000F900F90DF91CF910895CF93DF93EC010D
:10177000EC81F0E0E852FB4F4491ECEEF2E0628144
:1017800081810E949B0B8C818F5F8C83DF91CF9135
:101790000895CF93DF93EC01ECEEF2E04381628198
:1017A0008C810E949B0B8C818F5F8C83DF91CF910A
:1017B00008950F931F93CF93DF9300D00F92CDB76F
:1017C000DEB78C018091BD0281110AC09E012F5F9E
:1017D0003F4F4FEF6FEF0E9433058A818093BD0228
:1017E000F8016481613049F06230F1F08091BD020E
:1017F00040E0662331F040E019C06091BD0240E056
:1018000080E00E948A0BF801848190E0019663E0F9
:1018100070E00E94102984830F900F900F90DF9149
:10182000CF911F910F9108954091BD0280E060E03B
:10183000E8CFEF92FF921F93CF93DF93EC0180EC00
:10184000E82E82E0F82E10E08C8197014091EF02A3
:101850006091EE02810F0E9433051B5E83E0E80E6B
:10186000F11C1C3F89F70E94550B9A818C8190FFD7
:1018700008C08F5F8C83DF91CF911F91FF90EF9015
:1018800008958150F7CFCF92DF92EF92FF920F939E
:101890001F93CF93DF93FC018281DD24DA9480FDD6
:1018A00002C0DD24D39400EC12E0D0E0C0E0F801E7
:1018B00011821082128294E0E92EF12CC12C8091C9
:1018C000BF028C0D8D30E4F16CE00E94EE28892F70
:1018D000082E000C990B8C179D0791F48091EF0254
:1018E0008E9DA0018F9D500D1124559547955595BE
:1018F000479598016091EE028091ED020E943305B8
:10190000CD0CF1E0EF1AF108D1F621960D5F1F4FD3
:10191000CC30D10561F60E94550B8091BF0291E059
:10192000D91214C0811110C08BE08093BF02DF91E7
:10193000CF911F910F91FF90EF90DF90CF9008957E
:1019400087FFC6CF845FC4CF8150EFCF90E0019670
:10195000BE010E941029E9CF0F931F93CF93DF930D
:10196000C0ECD2E0FE01118210821282339682E036
:10197000E43EF807C1F710E000E08091BE02082EB7
:10198000000C990B081719078CF180911101082E92
:10199000000C990B801791074CF19E014091EF02CA
:1019A0006091EE028091ED020E9433050F5F1F4FA0
:1019B00023960C30110509F70E94550B80911001F8
:1019C0009091BE02980F9093BE0220911101280FB2
:1019D00020931101121614F49B301CF08195809312
:1019E0001001DF91CF911F910F91089519821882F4
:1019F0001A82DCCFCF92DF92EF92FF920F931F9368
:101A0000CF93DF93CDB7DEB72E970FB6F894DEBF36
:101A10000FBECDBF8D879E87AD85BE8514961C9168
:101A2000212F30E0D9010E94612A9B01AC010E9464
:101A30002C2A69837A838B839C83E0E2F0E0E11BAC
:101A4000F109A5E5B0E09B01AC010E942C2A698751
:101A50007A878B879C879F01DF010E9431299B0138
:101A6000AC010E94372A6D837E838F8398879B0108
:101A7000AC0189819A81AB81BC81280F391F4A1F33
:101A80005B1F69857A858B859C850E943F2AF22E93
:101A9000822F90E0A9E2A21708F442C0B3E02B9F86
:101AA0009001112435952795122F109590ECC92E91
:101AB00092E0D92E00E085E5E82EEF188E2D01FD8D
:101AC0008F2D9601412F6091EE020E9433050F5F2A
:101AD000F3E0CF0ED11C0C3089F70E94550BAD8579
:101AE000BE8514969C9181E0992319F0903219F4E7
:101AF0008FEF80930F0180910F01890FED85FE8597
:101B000084832E960FB6F894DEBF0FBECDBFDF9153
:101B1000CF911F910F91FF90EF90DF90CF9008959C
:101B200025E530E0F901E81BF90B9F01220F331F77
:101B30002E0F3F1F37FFB6CF2F5F3F4FB3CFEF9230
:101B4000FF920F931F93CF93DF93EC0100EC12E011
:101B5000F12CE12C6091EE028091ED029C8126E057
:101B6000E216F104FCF49923F9F098014091EF0298
:101B70000E9433058FEFE81AF80A0D5F1F4F2CE023
:101B8000E216F10439F70E94550B8C8190E0019622
:101B9000817099278C83DF91CF911F910F91FF90D6
:101BA000EF900895992309F3980140E0E1CFCF9396
:101BB000C82F882309F4A2C08238A1F489E30E94C7
:101BC000F9060E9460072FEF31EE84E0215030408B
:101BD0008040E1F700C0000089E30E942D07CF910B
:101BE0000C946007833881F483E50E94F9060E9413
:101BF00060079FEF21EE34E0915020403040E1F744
:101C000000C0000083E5E9CF843881F487E40E94B6
:101C1000F9060E9460078FEF91EE24E0815090401A
:101C20002040E1F700C0000087E4D7CF8CEF8C0F95
:101C3000813A90F580910E01882301F1809117037C
:101C400087FF1CC0EC2FE695E695E695F0E0E056A0
:101C5000FE4F828190E04C2F477021E030E002C0BF
:101C6000220F331F4A95E2F782239323892B81F0B9
:101C70008C2F0E942D070E9460070AC0E2EAF1E063
:101C800088EA91E02191C21799F38E179F07D1F747
:101C90008C2F0E94F906A3CF80E28C0F883068F465
:101CA000C77021E030E001C0220FCA95EAF78091A9
:101CB0003802822B8093380292CF8BE58C0F8330D1
:101CC00038F42C2F2452330BC901CF910C946C069D
:101CD000E8E5EC0FE73150F4F0E0EE0FFF1FE159BB
:101CE000FE4F80819181CF910C948206C03F30F0ED
:101CF0008C2F0E946004CF910C94C807CF91089557
:101D00000F931F93CF93C82F10E000E0893311F495
:101D100000E510E08C2F0E94D70D0115110531F45C
:101D20008C2FCF911F910F910C94EE078FE99FE0BC
:101D30000197F1F700C0000001501109EECFFF92AA
:101D40000F931F93CF93DF93C62FD42F122F882387
:101D5000A9F0609336020E94BC079093C101809362
:101D6000C001C77081E001C0880FCA95EAF7DF9112
:101D7000CF911F910F91FF900C94A507809136028F
:101D8000681334C08091C0019091C1010E94EE0897
:101D9000883C910558F500E20D0FCD17A9F0C770EA
:101DA000FF24F3948F2D01C0880FCA95EAF70E9493
:101DB000AF07083048F48D2F877001C0FF0C8A955B
:101DC000EAF78F2D0E94A507812F0E94800E083010
:101DD000A0F4D77081E001C0880FDA95EAF7DF91AF
:101DE000CF911F910F91FF900C94AF07C77081E0C6
:101DF00001C0880FCA95EAF7F2CFDF91CF911F910A
:101E00000F91FF90089581E08093E00080E280933D
:101E1000D8001092C9008FE19EE40197F1F700C04D
:101E2000000087E090EBDC018093190390931A0384
:101E3000A0931B03B0931C0388E19CE00FB6F894B9
:101E4000A895809360000FBE90936000FFCFCF9362
:101E5000DF93D82FC92F80910E018823C1F1809183
:101E6000170387FF34C060E284E08093E9008FEFBE
:101E70009091E800815095FD06C095ED9A95F1F797
:101E800000008111F5CF8091E80085FF1DC0809191
:101E90000E0170E050E040E0811104C050E040E0ED
:101EA00068E070E08D2F9C2F0E94C9098091E800A6
:101EB0008E778093E80080E2ED2FFC2FADEDB1E04E
:101EC00001900D928A95E1F7DF91CF91089568E036
:101ED00081E0CBCF24E02093E9002FEF3091E800A0
:101EE000215035FD06C035ED3A95F1F7000021117E
:101EF000F5CF2091E80025FF0BC050E040E066E000
:101F000070E00E94C9098091E8008E778093E80014
:101F10000895CF93DF9300D00F92CDB7DEB79091A5
:101F2000DC01943011F589836A837B839093E90007
:101F30008FEF9091E800815095FD06C095ED9A9540
:101F4000F1F700008111F5CF8091E80085FF0DC009
:101F500050E040E063E070E0CE0101960E94C909C4
:101F60008091E8008E778093E8000F900F900F909B
:101F7000DF91CF910895BC0183E00C94890FBC01DF
:101F800084E00C94890F0F931F93CF93DF938B0101
:101F9000D82FC92F0E94CC05A8016D2F7C2F88E077
:101FA00090E0DF91CF911F910F910C94EB29ECEE13
:101FB000F2E083E0808311828FEF82838383148237
:101FC00063E070E08FEF9FEF0C94C30FCF93DF932C
:101FD00000D000D0CDB7DEB78091F002833018F486
:101FE0008F5F8093F0028091EC029091ED02A091BE
:101FF000EE02B091EF0289839A83AB83BC83BC016C
:10200000CD010F900F900F900F90DF91CF910C9416
:10201000C30FCF93DF9300D000D0CDB7DEB7809150
:10202000F002882319F081508093F0028091EC0235
:102030009091ED02A091EE02B091EF0289839A8314
:10204000AB83BC83BC01CD010F900F900F900F901C
:10205000DF91CF910C94C30F5F926F927F928F921A
:102060009F92AF92BF92CF92DF92EF92FF920F9327
:102070001F93CF93DF9300D000D000D00F92CDB745
:10208000DEB7182F762E042F622E9091EC0290FF6F
:1020900083C0E92FE695AE2FB0E0A05DBE4F8C91D6
:1020A0008093E4029E7F9230C9F59E012F5F3F4FDF
:1020B000812F0E9433054B8169818A810E948A0B9E
:1020C0001093ED027092EE020093EF02662009F485
:1020D00063C08091EC029091ED02A091EE02B0916C
:1020E000EF028C839D83AE83BF83BC01CD01279615
:1020F0000FB6F894DEBF0FBECDBFDF91CF911F9119
:102100000F91FF90EF90DF90CF90BF90AF909F9096
:102110008F907F906F905F900C94C30F823019F472
:102120000091EF02CDCF863019F41091ED02C8CFA7
:102130008930D9F3893121F6E9518E2F8170582EDB
:10214000E695F0E0E852FA4FA590B490BB2480ECFD
:10215000E82E82E0F82ED12CC12C9CE0892E912C07
:10216000C601B4010E94FC28812F511013C0860FB4
:102170009701402F672D0E943305CA0CDB1C93E0AA
:10218000E90EF11CA4EEEA16A2E0FA0649F70E9455
:10219000550B96CF861BECCF27960FB6F894DEBF73
:1021A0000FBECDBFDF91CF911F910F91FF90EF90A8
:1021B000DF90CF90BF90AF909F908F907F906F9067
:1021C0005F900895ECEEF2E0818121E0438162812D
:1021D000885F0C942C10ECEEF2E0818121E04381C9
:1021E000628188500C942C10ECEEF2E0628128E0C1
:1021F000620F08F46FEF21E0438181810C942C1071
:10220000ECEEF2E0628128E0621B08F460E021E07D
:10221000438181810C942C10ECEEF2E0438128E0A4
:10222000420F08F44FEF21E0628181810C942C1061
:10223000ECEEF2E0438128E0421B08F440E021E0AC
:10224000628181810C942C10CF93DF9300D000D059
:10225000CDB7DEB79091EC0290FF49C0917081112B
:1022600035C092609093EC02662381F08091EC027D
:102270009091ED02A091EE02B091EF0289839A83D2
:10228000AB83BC83BC01CD010E94C30F6091EC0203
:10229000669570E04BE050E082E191E00E94B82941
:1022A000892BD9F01092E50281E08093E90220E0C9
:1022B0004091EF026091EE028091ED020F900F903D
:1022C0000F900F90DF91CF910C942C108B3210F067
:1022D0009465C8CF880F982BC5CF81E08093E50225
:1022E0000E94BC079093E7028093E602DDCF0F9037
:1022F0000F900F900F90DF91CF9108958091EC0295
:1023000086958F5F8B3208F081E061E00C94241198
:102310009091EC0296958FEF890F913009F48AE243
:1023200061E00C9424119091EC0290FF07C0969507
:10233000981720F0961710F40C947E1161E00C941D
:1023400024114F925F926F927F928F929F92AF92E1
:10235000BF92CF92DF92EF92FF920F931F93CF9392
:10236000DF93FC016280448081E08483E8EDF4E047
:102370007490E7E5F5E0E491C1E8D2E090ECE92E55
:1023800092E0F92E2DEBC22E22E0D22E32E0A32EC7
:10239000BB24B39488248A94912C55245A94E71929
:1023A0000E2F10E082E0861530F08091ED028883D8
:1023B0008091EE028983411021C01B821A8297010D
:1023C0004A81698188810E943305259683E0E80E61
:1023D000F11CCC16DD0631F7DF91CF911F910F91E3
:1023E000FF90EF90DF90CF90BF90AF909F908F9035
:1023F0007F906F905F904F900C94550B8B8188234A
:10240000E9F081508B83859DC00111246C8170E0BF
:102410000E94FC28FB01FF27E852FB4F8491E82F24
:10242000E719E59DC0011124B8010E94FC288091A4
:10243000EF02689FB00111247A83C1CF0E94A829BE
:10244000AC019091EF02969591589A9D90019B9DB9
:10245000300D1124232F3327421753070CF0AFCF31
:1024600082E0861588F40E94A829B4010E941029F0
:1024700088830E94A8292091EE022695622F70E0A1
:102480000E941029280F29831A828091EF02893C2B
:1024900020F088EC8C838B8392CF8431D8F784E151
:1024A000F9CF0F931F93CF93DF93C42FD0E0CC0FBE
:1024B000DD1F2EE1629FC00DD11D112436E9839FDF
:1024C000C00DD11D1124CE0186960E94C529082F6A
:1024D00010E0102F0027CE0187960E94C529980191
:1024E000282BC901DF91CF911F910F910895462F9D
:1024F000672F843030F4753020F44F3010F40C9492
:10250000511290E080E00895CF93DF930E947712FC
:10251000EC01803E910509F46EC060F581339105B0
:1025200009F4B1C088F48932910509F4A5C08A97ED
:1025300009F4B0C0C130D10551F1CE010497813A00
:10254000910508F064C023C08933910509F44CC09B
:102550008238910509F448C08533910509F485C096
:10256000883A910508F09DC0853A910518F3A49723
:10257000D0640DC0843E910509F45CC060F4823ED5
:10258000910509F447C0833E910509F448C0CE0186
:10259000DF91CF910895863E910509F456C0873E9C
:1025A000910509F457C0811522E5920708F0ACC0E7
:1025B000811531E5930708F0FCC0883E910538F39A
:1025C000811540E5940708F083C0C11580E4D80761
:1025D00008F0ECC0CF3FD10511F008F072C0C03F49
:1025E000D105A8F0D065D3CF80911703837079F21D
:1025F000C0EED0E0CCCF8091170380FD07C1909151
:10260000180390FFC4CFC3EED0E084FFC0CFD0E06A
:10261000C0E0BDCF8091170382FDF5CFB8CF809188
:10262000170382FDF6C09091180390FDE1CF84FF5F
:10263000AECFEDCF8091180381FFA9CF8091170312
:10264000C7EED0E084FDE3CFA2CF8091170383FDD6
:10265000F7CF9DCF8091170383FDDEC090911803C3
:1026600091FFE5CFC4EED0E092CF8091170385FFB4
:102670008ECFC9E2D0E08BCF8091170385FF87CF43
:10268000C5E3D0E084CF8091170386FF80CFCAE2F4
:10269000D0E07DCF8091170386FF79CFC1E3D0E0F2
:1026A00076CF885A9109479708F0B1CFC85AD0E041
:1026B000CC0FDD1FC159DE4F0990D881C02DD464E5
:1026C00066CFCE019A9581159F4108F460CF9FCFC8
:1026D000F4E096958795FA95E1F783702C2F26956F
:1026E0002695237040E2249F90011124382B8C2FD3
:1026F0008370C1E0D0E002C0CC0FDD1F8A95E2F705
:10270000C22BD32BDC6843CFC11586E5D80730F543
:10271000C11595E5D90708F060C0C11524E5D207B9
:10272000C0F48C2F869586959E0123703327C115A2
:10273000D34508F043C0C1E0D0E002C0CC0FDD1F9C
:102740002A95E2F720E2829FC0011124C82BD92BE1
:10275000D9CFDC2FCC27C46FD06A19CFC1153AE589
:10276000D30788F4C11549E5D40708F041C0CE016C
:1027700098558F3F910511F008F049CFDC2FCC27F9
:10278000C06FD06A04CFCE0190568115904208F0F8
:102790003ECF8D2F8F710E94BE0390E0982F882727
:1027A00088279F719C012C2BE90120C0DF70D06A23
:1027B000EECED82FCC27C16FD06AE9CEC1E0D0E0F1
:1027C00002C0CC0FDD1F2A95E2F730E2839FC001E3
:1027D0001124C82BD92BDA68DACE8C2F0E94BE03C5
:1027E000C82FD0E0DC2FCC27CC27DF71D062CFCE32
:1027F0008C2F8F700E94BE0334E0D695C7953A9512
:10280000E1F7CF70DC2FC82FD069C1CEC9E3D0E08B
:10281000BECEC2EED0E0BBCEC6EED0E0B8CEBF9208
:10282000CF92DF92EF92FF920F931F93CF93DF939C
:102830008C01C0903E02D0903F02E0904002F090A8
:10284000410280913A0290913B02A0913C02B091EA
:102850003D02C82AD92AEA2AFB2ACFE1D0E0BC2EC1
:10286000D701C6010C2E04C0B695A79597958795FC
:102870000A94D2F780FD0EC0219788F7B12C8B2DDA
:10288000DF91CF911F910F91FF90EF90DF90CF904C
:10289000BF900895B8018C2F0E948412019761F3B4
:1028A000EECF0F931F93CF93FC01828100811181A2
:1028B000882389F0662379F0C8010E940F14C82F7D
:1028C000682FC8010E94A206B8018C2FCF911F91DA
:1028D0000F910C947712C8010E94D006C82FF4CF34
:1028E000CF93DF93D82FC92F0E940F146D2F7C2F09
:1028F000DF91CF910C9484120E947014282F892F9D
:102900008F70392F32953F70903C80F43A30B0F49C
:10291000343020F4323090F480E008953630E1F71E
:1029200081E0283E88F0213FB9F70EC03C3011F01D
:102930003F3091F7869586958695089581E0203FF2
:1029400039F018F4283E40F70895243F29F7FCCFCA
:102950000895CF9384E090E00E94C529C82F81E2BA
:1029600090E00E94C529982F8C2FCF9108954F9207
:102970005F926F927F928F929F92AF92BF92CF920F
:10298000DF92EF92FF920F931F93CF93DF9310E0AC
:1029900000E036E9632E712CE801CC0FDD1F5801F1
:1029A0001CC0F60185909490692DC7010E94D92919
:1029B000682DC70101960E94D92922E0C20ED11CC0
:1029C00032E0E30EF11C4E145F0459F76E968FE06F
:1029D000A80EB11CC615D70581F0C501880F991F37
:1029E0009C012A5E3C4F69017E0136E2E30EF11C38
:1029F0002E0184E4480E511CD4CF3E0126E9620E1C
:102A0000711C055B1F4F0C3231E0130729F6DF9173
:102A1000CF911F910F91FF90EF90DF90CF90BF90DB
:102A2000AF909F908F907F906F905F904F900895A0
:102A3000CF93DF93CEE7D2E060E0CE010E94D929A8
:102A40002196C11584E0D807B9F7DF91CF91089599
:102A5000682F86E090E00C94D9291092380280917A
:102A60000E01E2EAF1E0882359F08091170387FF15
:102A700007C08EE1DF011D928A95E9F70C943F08AB
:102A800086E0F8CF1F93CF93DF93CDB7DEB7AA9739
:102A90000FB6F894DEBF0FBECDBF86EC91E0FC010F
:102AA00001962091F100208321E08E3C9207B9F736
:102AB0008091C701893009F456C0C8F4823009F406
:102AC000B2C0833009F481C0813071F18091E80097
:102AD00083FF81C28091C6019091C7019A3008F0AE
:102AE0007AC2E92FF0E0EE58F54D0C9424298A3093
:102AF00009F488C08B3051F78091C601813231F7DB
:102B00008091CA019091CB01892B01F78091E80057
:102B1000877F8093E8000E945A098091C8018093C2
:102B20000E010E942D15D2CF8091C601813A71F617
:102B30008091E800877F8093E8008091CA0190919E
:102B4000CB01892B61F460E28DED91E070E00E9491
:102B500000098091E8008B778093E800B7CF60E0B0
:102B600090E080E0F3CF8091C601813209F0AECFD2
:102B70008091CA019091CB018D7F892B09F0A6CF5E
:102B80008091E800877F8093E8008091E80082FFD1
:102B900017C09091F3008091F200029729F4809180
:102BA000F1008B7F813021F48091F1008093FD0151
:102BB0008091E8008B778093E8000E945A0986CFC5
:102BC0008091DC018111E1CF81CF8091C601813AF2
:102BD00009F07CCF8091CA019091CB01892B09F03B
:102BE00075CF8091E800877F8093E8008091E800AE
:102BF00080FFFCCF80910E018093F1008091E8006E
:102C00008E77D9CF8091C601813209F05FCF809154
:102C1000E800877F8093E8000E945A098091C901EB
:102C20008093C20153CF8091C601813A09F04ECF03
:102C30008091E800877F8093E8008091E80080FF22
:102C4000FCCF8091C201D8CF803899F0823809F04A
:102C5000C2C18091CA018F70873008F0BCC18093D7
:102C6000E9008091EB0085FB882780F91092E9004C
:102C700006C08091C3019091DB0191118260909117
:102C8000E800977F9093E8008093F1001092F100A4
:102C90008091E8008E779BC1882309F489C1823036
:102CA00009F099C18091C80181118CC18091CA013C
:102CB0008F702FEF280F263008F08DC18093E90028
:102CC0002091EB0020FF7EC1933031F48091EB0026
:102CD00080628093EB0076C19091EB0090619093BD
:102CE000EB0021E030E001C0220F8A95EAF7209343
:102CF000EA001092EA008091EB008860EACF81112F
:102D00006AC11091C8011F778091E3008078812B00
:102D10008093E3008091E800877F8093E8000E9421
:102D20005A098091E80080FFFCCF8091E300806821
:102D30008093E30082E0111183E08093DC014BC1BA
:102D40008058823008F047C14091C8015091C901B4
:102D50004C3D83E0580799F583E08A838AE28983B2
:102D60004FB7F894DE01139620E03EE051E2E32FE6
:102D7000F0E050935700849120FF03C082958F703C
:102D80003F5F8F708A30C8F0895C90E08D939D938F
:102D90002F5F243161F74FBF8091E800877F8093D8
:102DA000E8006AE270E0CE0101960E94000980917D
:102DB000E8008B778093E8000EC1805DE6CF8091BC
:102DC000CA019091CB01252F33272330310509F417
:102DD0004AC078F52130310509F479C08BE590E0DF
:102DE000E4ECF1E02230310509F0F5C02091E80073
:102DF000277F2093E8002091CC013091CD018217EC
:102E0000930708F49C0140E02115310509F064C0E6
:102E1000411162C08091E80082FDC9CF8091DC0140
:102E2000882329F2853019F28091E80083FFF2CFE0
:102E3000BECF2132310509F43BC02232310509F001
:102E4000CAC08330910508F0C6C0FC01EE0FFF1F19
:102E5000EC5DFE4F0190F081E02D8F5D9E4FDC0117
:102E60008C9190E011C0CA019927413089F08230DD
:102E70009105B1F0892B09F0AEC0EDE4F2E0E491E8
:102E80008E2F90E0EDE4F2E0009709F4A4C0AECFFD
:102E9000E1E4F2E0E4918E2F90E0E1E4F2E0F4CF9F
:102EA000E1E3F2E0E4918E2F90E0E1E3F2E0ECCF99
:102EB0008330910508F08FC0880F991FFC01E65DF3
:102EC000FE4F0190F081E02D89E090E08FCF82E10C
:102ED00090E0EFE1F2E08ACF8091DC01882309F4F1
:102EE00066CF853009F463CF8091E80083FD5FCF22
:102EF0008091E80082FD8ECF8091E80080FF84CF32
:102F00009091F3008091F2002115310519F088307D
:102F1000910550F041E0089709F040E08091E80009
:102F20008E778093E80070CF44914093F100319602
:102F3000215031090196E8CF803809F04CC08091CA
:102F4000E800877F8093E8008091C4018093F100BE
:102F50009FCE811140C01091C8011230E0F58091E0
:102F6000E800877F8093E8001093C4010E945A090B
:102F7000112311F084E005C08091E30087FDFACFB2
:102F800081E08093DC0142E061EC81E00E94220A52
:102F900042E261EC84E00E94220A42E261EC82E0BB
:102FA0000E94220A42E260EC83E00E94220A13C0DF
:102FB0008091C801813079F481E0933009F080E09C
:102FC0008093DB011092E9008091E800877F809375
:102FD000E8000E945A098091E80083FF0AC08091AE
:102FE000E800877F8093E8008091EB008062809307
:102FF000EB00AA960FB6F894DEBF0FBECDBFDF91EF
:10300000CF911F9108956BEE7EEF90E080E00E94DB
:10301000F72960E082E090E00E94D92960E083E037
:1030200090E00E94D92910923A0210923B0210922D
:103030003C0210923D0260E084E090E00E94D929B9
:1030400060E081E290E00E94D92960E085E090E0B4
:103050000E94D92960E086E090E00E94D9296FEFB4
:1030600087E090E00E94D92940E050E0BA0188E072
:1030700090E00E94EB2960E08DE090E00E94D92969
:1030800040E050E0BA0188E190E00E94EB2960E066
:1030900087E190E00E94D92940E050E0BA018CE13C
:1030A00090E00E94EB2960E080E290E00E94D92944
:1030B00040E050E0BA0188E190E00E94EB2940E056
:1030C00050E0BA018FE090E00E94EB2940E050E030
:1030D000BA0183E190E00C94EB293F924F925F920A
:1030E0006F927F928F929F92AF92BF92CF92DF9218
:1030F000EF92FF920F931F93CF93DF93CDB7DEB77D
:1031000028970FB6F894DEBF0FBECDBF7C01DC015F
:1031100013968D919C911497892B41F011968C9167
:1031200011979C9189238F3F09F069C628960FB6A5
:10313000F894DEBF0FBECDBFDF91CF911F910F91ED
:10314000FF90EF90DF90CF90BF90AF909F908F90C7
:103150007F906F905F904F903F900895C80182518B
:103160009F45409708F0FEC58FEF93E00E94C52968
:1031700002514EE7842E42E0942E882381F1809103
:103180004202877099F2D70112968C91882371F2CE
:1031900082E028960FB6F894DEBF0FBECDBFDF9158
:1031A000CF911F910F91FF90EF90DF90CF90BF9044
:1031B000AF909F908F907F906F905F904F903F90D7
:1031C0000C94D6088114B4E09B06C9F2C4010E9495
:1031D000C529811101C00150EFEF8E1A9E0A01111D
:1031E000F1CF80911D0190911E01A0911F01B0911E
:1031F000200189839A83AB83BC83442443943AE0BF
:10320000332E84010F5F1F4FC4010E94C52989839B
:103210001A82882309F4B3CF9FEF980F933010F5EB
:103220008A834982F2E08F0E911CC8010E94C52951
:103230008B83882309F4A3CF8E010F5F1F4FD80122
:103240002C912223F1F2213009F048C011969C9173
:10325000119712968C91913039F40E5F1F4F0E9496
:10326000800E08C04801E8CF923039F40E5F1F4F3E
:103270000E94D70D0F5F1F4FE2CF933029F40E5FEE
:103280001F4F0E94EE07F6CF943019F00F5F1F4FCB
:10329000F1CF0E5F1F4F20E030E0B8016F5F7F4F2E
:1032A000F80141818053990B8A30910560F0211516
:1032B000310501F38FE99FE00197F1F700C00000AD
:1032C00021503109F4CF329EF001339EF00D1124CC
:1032D0009C012E0F3F1F842F8B01DFCFE22FF0E0E8
:1032E000EA56FD4F5490822F86958695869590E0FC
:1032F000FC01EA57FD4F64902770712C022E02C02A
:10330000759467940A94E2F7A1E06A227724FC019D
:10331000EA58FD4FA490B12C022E02C0B594A79498
:103320000A94E2F7B1E0AB22BB24FC01EA59FD4F5D
:10333000C490D12C02C0D594C7942A95E2F7E1E05D
:10334000CE22DD246114710419F081EE0E94D70DA4
:10335000A114B10419F086EE0E94D70D852D0E94AC
:10336000800EAB2819F086EE0E94EE07672819F050
:1033700081EE0E94EE07CD2809F47CCF8CE26FCF5E
:1033800081E00E9470080E94F309F9CE81E00E945A
:10339000A108F9CF82E0F5CF0F3B7CE5170709F4D0
:1033A0005EC0003C8CE5180709F47CC0033F9CE537
:1033B000190709F4A6C008F08CC0083DBCE51B073E
:1033C00009F49BC028E241E0093DECE51E0709F441
:1033D00096C026E241EE61EE073DFCE51F0709F4C9
:1033E00088C03111E0C406311C4509F0EFC180915D
:1033F0003702811152C189E20E942D07A6C080E0E8
:103400000E944A06809180020E942815B8CE8091C1
:103410008002982F987F09F43FC0885080938002E3
:10342000887F91E009F490E08091800290FB80F920
:1034300013C080918002982F969596959695883224
:1034400040F49F5F990F990F990F8770892B809394
:103450008002809180028160809380021BC08091F5
:10346000800280FF09C08E7F809380020E94281511
:1034700080E00E94E10583CE8091800280FD7FCEB6
:10348000816080938002813019F489E0809380020A
:10349000809180020E9428158091800286958695F1
:1034A0008695E7CF90918002892F8695869586959F
:1034B0008F5F8F719770863048F4880F880F880F60
:1034C000892B8093800280918002AACF9093800202
:1034D000FACF053F2CE51207C1F0063F4CE5140773
:1034E000C1F027E245EE64EE043F5CE5150709F004
:1034F00078CF832F0E949F0E42CE27E245EE65EEE5
:10350000F8CF26E241EE60EEF4CF26E241EE62EE25
:10351000F0CF27E245EE66EEECCFC8018A5F9C450E
:10352000099708F44CC40631BCE51B0709F0B7C085
:10353000809138028A7A91E009F490E09093370202
:103540008111A9C089E20E94F9060E94600717CE86
:10355000F801E350FC45809117038160E331F105E8
:1035600090F4E458F54D0C9424290A5F1C45093069
:10357000110508F034C40157154DF8010C942429A5
:103580008091170382608093170329C480911703E9
:103590008460F9CF809117038860F5CF809118037C
:1035A0008160809318031BC4809118038260F9CF57
:1035B000809117038061E7CF809117038062E3CF8A
:1035C000809117038064DFCF0E942D15809117032F
:1035D0008068D9CF809117038C60D5CF8091180374
:1035E0008360DFCF809117038E7FCDCF809117034B
:1035F0008D7FC9CF809117038B7FC5CF8091170333
:10360000877FC1CF809118038E7FCBCF8091180325
:103610008D7FC7CF809117038F7EB5CF8091170321
:103620008F7DB1CF809117038F7BADCF0E942D1579
:10363000809117038F77A7CF80911703837FA3CF44
:10364000809118038C7FADCF8091170382FB99275F
:1036500090F921E0922790FB82F990FB83F993CFB8
:1036600080911803982F909591708E7F892B90FBF5
:1036700081F997CF0E942D1590911703892F97FB01
:1036800087F9805880CF61E08EE090E00E94D929D0
:10369000A6C360E0F9CF85E356CF85E3ADCE809138
:1036A00038028272F801E25CFC45E431F10508F071
:1036B00082C0E856F54D0C9424298091EC0280FFDD
:1036C00021C08E7F8093EC020091EC021091ED02FC
:1036D0002091EE023091EF020D831E832F833887F5
:1036E000C901B8010E94C30F1092E5021FEF20E745
:1036F00032E0115020403040E1F700C000000E944D
:10370000550B3DCD81608093EC0261E086950E946F
:10371000241135CD48E851E16EE771E10E94DC05E6
:103720002ECD4EE751E168E871E1F8CF4BEE50E164
:1037300062EE70E1F3CF42EE50E16BEE70E1EECF5E
:1037400040E051E164EF70E1E9CF44EF50E160E027
:1037500071E1E4CF48E151E16CE071E1DFCF4CE091
:1037600051E168E171E1DACF49E050E166EE7FE0D6
:10377000D5CF46EE5FE069E070E1D0CF61E081E057
:10378000C6CF65E082E00E949311F9CC68E086E044
:10379000FACF6EE089E0F7CF64E18FE0F4CF67E124
:1037A00085E1F1CF61E088E1B2CF62E289E1EBCF60
:1037B00061E083E2ACCF332349F001154CE51407F7
:1037C00009F446C00E3D1C4509F44FC0F701C08006
:1037D000D180C601332309F44BC00E940F14182F67
:1037E000682FC6010E94A206B601812F0E94841292
:1037F0008C01D70112969C90129715968C9082940A
:103800002FE08222809142028770A1F0B92C99208A
:1038100091F0812F807F803421F080E2800F88300A
:1038200048F082E00E94D608809142028770BB2453
:10383000B3948111B12C812F82958F70C82ED12C19
:103840008C3008F04FC0F601E455F54D0C94242956
:103850000E942D156FEF74E38CE061507040804042
:10386000E1F700C000000E94030F0E94031887CCFC
:103870000E94D006182FB8CFB12FBF70AB2E107F8B
:1038800019F0A29490EFA9229920C9F0AA2069F01A
:1038900080E2800F883010F001110BC08091380257
:1038A000A82AA09238020E946007802F0E94D70D9C
:1038B00019C080914302A82AA0924302F4CF802F1E
:1038C0000E94EE07AA2071F0A09480E2800F883059
:1038D00010F0011144C080913802A822A092380251
:1038E0000E946007A8E0CA1AD108B4E0CB16D10440
:1038F00020F40E9460060E94B803BB20A9F08091CA
:10390000420280FD11C0F70112828595859585954B
:103910000E947008C7010E946D188091420285952F
:10392000859585950E94A10860E0C70128960FB68D
:10393000F894DEBF0FBECDBFDF91CF911F910F91E5
:10394000FF90EF90DF90CF90BF90AF909F908F90BF
:103950007F906F905F904F903F900C9451148091A6
:103960004302A822A0924302BBCFE12FEF70AE2EFC
:10397000107F103219F0A29480EFA822002381F06A
:10398000013079F19920D1F1882089F1D70115967C
:103990008C91159780FF89CF8F7015968C9327C0D7
:1039A000992091F0909139028A2D892B811003C0C2
:1039B0000E94A50797CFF1E08F12FACF891709F47B
:1039C00091CF809339028ECF811006C00E945A0792
:1039D0008A2D0E94AF0786CF01E0801609F482CFBE
:1039E000F5CF992031F015E0181508F47BCF8A2D1A
:1039F000DFCF24E0281508F475CFEACF882041F303
:103A0000093349F4BFEFE7EEF3E0B150E040F04096
:103A1000E1F700C00000802F0E94EE0763CF812FE6
:103A200086958695837061F0813009F05BCFC8017F
:103A30009370911002C090E080E00E94820652CF05
:103A4000C8019370911002C090E080E00E946C0663
:103A500049CF802F992029F00E9460040E94C80756
:103A600041CF0E94BA04FACF812F837009F07AC047
:103A7000911038CF202F229526952770220F220FE4
:103A8000402F4F7050E070E060E0022E04C0440F01
:103A9000551F661F771F0A94D2F780E090E0DC0183
:103AA00004FF0FC08FE090E0A0E0B0E004C0880FFA
:103AB000991FAA1FBB1F2A95D2F780959095A095B4
:103AC000B095E12FE695E695E370E23059F1E330E9
:103AD00009F441C000913A0210913B0220913C024E
:103AE00030913D02E13099F0842B952BA62BB72B1A
:103AF000AC01BD0140235123622373234D835E83B8
:103B00006F837887CB01BA010E945C08EBCE042B4F
:103B1000152B262B372BB901A801482B592B6A2BC3
:103B20007B2BECCF842B952BA62BB72B40913A0205
:103B300050913B0260913C0270913D028C019D01CD
:103B400004271527262737270D831E832F833887C1
:103B5000C901B801D9CF8A019B01082B192B2A2B47
:103B60003B2BF2CF992009F44CC010FFBBCE202F85
:103B7000229526952770220F220F402F4F7050E07C
:103B800070E060E0022E04C0440F551F661F771FCF
:103B90000A94D2F780E090E0DC0104FF0FC08FE0D0
:103BA00090E0A0E0B0E004C0880F991FAA1FBB1FDF
:103BB0002A95D2F780959095A095B095E12FE6953E
:103BC000E695E370E23059F1E330E1F100913E0215
:103BD00010913F022091400230914102E130A1F06A
:103BE000842B952BA62BB72BAC01BD014023512371
:103BF000622373234D835E836F837887CB01BA0181
:103C00002DC011FF6FCEB3CF042B152B262B372BD6
:103C1000B901A801482B592B6A2B7B2BEBCF842BA6
:103C2000952BA62BB72B40913E0250913F026091FD
:103C30004002709141028C019D010427152726271F
:103C4000372706C08A019B01082B192B2A2B3B2BF7
:103C50000D831E832F833887C901B8010E9466082F
:103C600041CE1F70992029F0812F0E947008802F6B
:103C70009FCE802F0E94AF07812F0E94A10832CED5
:103C8000023FD9F160F4003FF1F0013F79F1992052
:103C900009F458C0811009CE812F8F712BC0033FCA
:103CA00089F1043FA1F7992009F441C01F71812FC8
:103CB0000E94700858E0159FC00111248360809312
:103CC0004202812F17C025E0911024E0281508F446
:103CD00009CE1F7181E090E0A0E0B0E004C0880F41
:103CE000991FAA1FBB1F1A95D2F79DCF812F8F71E5
:103CF000992019F20E947008F5CD812F8F719920BB
:103D0000C9F3BBCF60E070E0CB01992009F4A6CFE6
:103D10001F7181E090E0A0E0B0E0AC01BD0104C003
:103D2000440F551F661F771F1A95D2F763CF81E0A6
:103D30000E94D60861E0681508F0D4CD82E00E94A8
:103D4000D608D0CD882059F0093309F064CE7FEF32
:103D500087EE93E0715080409040E1F75ACE812F7A
:103D60008F718BCF0031FFE51F0709F409CB0131BB
:103D70002FE5120709F40ECB0E3BFCE51F0709F4F3
:103D800058CB08F009CB0C3B4CE5140709F437CBB2
:103D90000D3B5CE5150709F43ACB85E00B3B6CE580
:103DA000160709F42DCB1092360206316CE5160782
:103DB00008F0B3CB02307CE5170708F470CC0E9402
:103DC000A914909318038093170306318CE5180704
:103DD00008F0CBCB02309CE5190708F0B9CB609115
:103DE00017031091180384E090E00E94D929612FF5
:103DF00081E290E00E94D9290E942D15C0C961E09E
:103E0000C7010E9451148C01D70112963C913111C7
:103E1000A5C900314FE5140709F4B8CA01315FE5BF
:103E2000150709F0C3CA82E0B2CA1F93CF93DF938C
:103E300080917B02807FA9F480917802882389F0A9
:103E400080914502C09144027091760260917702A0
:103E5000A0917902B0917A02D62FD72316E0C81329
:103E600004C0DF91CF911F91089590E0109711F059
:103E7000DF3F19F401968770F2CF189F9001199FC8
:103E8000300D1124F901EA5BFD4F41816413F2CF3B
:103E900040814713EFCF42814111ECCF43815481E0
:103EA0004A1B5B0B483C510528F780917B028F70C1
:103EB000806180937B02F901E55BFD4F80818F700B
:103EC0008061808386E792E00E946D18DF91CF9138
:103ED0001F910C9498068F929F92AF92BF92DF929F
:103EE000EF92FF920F931F93CF93DF93CDB7DEB77F
:103EF0002B970FB6F894DEBF0FBECDBF8C0185E0C7
:103F0000F801DE01179601900D928A95E1F7F8010C
:103F1000E28086E7882E82E0982E409179025091C7
:103F20007A024115510549F080917602909177020D
:103F3000282F29232F3F09F01AC1EE2009F429C1A7
:103F40008F8198850E947C14F82E882309F421C162
:103F500086E0F801A6E7B2E001900D928A95E1F7BC
:103F60000E94151F1EC0D0907B026D2D607F483CC3
:103F7000510508F0A3C06111BFC0FE2C291324C055
:103F8000831322C0E11020C08D2D8F70806180933B
:103F90007B0286E792E00E946D1880917B02F80117
:103FA00085838F2D2B960FB6F894DEBF0FBECDBF45
:103FB000DF91CF911F910F91FF90EF90DF90BF9015
:103FC000AF909F908F900895AB2829F0822F832384
:103FD0008F3F09F08EC080E0F82FF170DF2EE09166
:103FE00045024091440256E080FD1CC0EE20C9F21B
:103FF00080917B02816080937B02F12CD2CF8E2F47
:1040000090E05E9FF0011124EA5BFD4F6181261371
:1040100006C06081361303C062816E11E7CFFC01D8
:104020003196E770E413EBCF8F8198850E9470146E
:10403000292F22952F70903260F0225F2F7022304E
:1040400078F49F7051F0F8019581907F31F4D12C74
:104050000AC09F7011F08823D1F3805E8830B8F3D6
:10406000C8010E946D18FD2C9CCF8F8198850E94FD
:104070007C14882309F48DC0EE2009F48AC0809155
:104080007B02803270F080917602909177029A8361
:1040900089831B82BD82AC82DE82CE0101960E94A2
:1040A0006D1886E0F801A6E7B2E001900D928A95BE
:1040B000E1F70E94151FFF24F39473CF611130C004
:1040C00086E792E00E946D1886E0F40111928A95CD
:1040D000E9F793CF8F8198850E947C148111E1CFFD
:1040E00080917B02816080937B02C8010E946D18E1
:1040F00058CF81E08E2570CF2913B7CF8313B5CF6A
:10410000E110B3CFF801D582C8010E946D1886E096
:10411000F801A6E7B2E001900D928A95E1F741CF50
:104120002913A3CF8313A1CFE1109FCFF801D5822C
:10413000C8010E946D1886E0F40111928A95E9F792
:1041400030CF2913C7CF8313C5CF80917B0280FD69
:10415000DECF982F907FD9F2F8018583903FA1F2AE
:10416000982F907F905F8F70892B8583CDCF308182
:104170002181A380B480F0907802B501641B750B97
:10418000AB01F110F0CE483C5105A8F6FE2CE11031
:10419000D8CFC8010E946D188ECF1F93CF93DF93A5
:1041A000CDB7DEB767970FB6F894DEBF0FBECDBFB1
:1041B0004B8B5C8B962F6D8B7E8B8F8B611110924E
:1041C00043021A8A85E0FE017396DE011D96019076
:1041D0000D928A95E1F79F8786E0FE013D96DE010C
:1041E000179601900D928A95E1F7CE0107960E94ED
:1041F0006B1F882389F016E080914502909144025C
:10420000891349C067960FB6F894DEBF0FBECDBFC5
:10421000DF91CF911F91089586E0FE013796DE0170
:10422000119601900D928A95E1F78A859B85892BDD
:1042300011F38F81988589238F3FE9F22091440201
:1042400030E0C901019687709927409145024817CF
:10425000190671F40E942D15109244021092450225
:1042600086E0E6E7F2E0DF011D928A95E9F7C3CF29
:1042700096E0929FD001939FB00D1124AA5BBD4F91
:10428000FE01319601900D929A95E1F780934402D8
:104290000E949806B0CF819FC00111248A5B9D4F78
:1042A0000E946B1F882309F4ADCF8091450290E0F6
:1042B000019687709927809345029ECF90E080E019
:1042C0000E94D3299C0181E02B3E3E4F09F080E003
:1042D00008950E945E21811102C00E94031886E0A9
:1042E00090E00E94C52980938002803320F087707F
:1042F00088628093800290918002892F817090FF64
:1043000004C0892F8695869586950C94E1051F92A9
:104310001FB61F9211248F939F93AF93BF938091E9
:104320000202811113C08091FE019091FF01A091C2
:104330000002B09101024196A11DB11D8093FE01C2
:104340009093FF01A0930002B0930102BF91AF913F
:104350009F918F911F901FBE1F90189578941F9268
:104360001FB61F9211248F939F93AF93BF93809199
:10437000FE019091FF01A0910002B091010201960F
:10438000A11DB11D8093FE019093FF01A093000237
:10439000B0930102BF91AF919F918F911F901FBE6B
:1043A0001F901895CDB7DEB7A9970FB6F894DEBF6A
:1043B0000FBECDBF84B7877F84BF0FB6F894A89592
:1043C00080916000886180936000109260000FBE51
:1043D00080E890E00FB6F8948093610090936100BC
:1043E0000FBE85B7806885BF85B7806885BF8AEBBB
:1043F00097E090939F0180939E010E94AA090E94DA
:10440000520A8091E20084608093E2007894809167
:10441000DC018823A1F01091E9001F709091EC005D
:10442000892F817090FD80E8182B1092E90080910F
:10443000E80083FD0E9442151F701093E90082E09E
:1044400084BD93E095BD9AEF97BD80936E0080E99F
:104450000E94010481E90E94010482E90E94010492
:1044600083E90E94010485E90E94010400E611E04D
:10447000FFE6EF2EF1E0FF2ED8018D918D010E9415
:104480000104E016F106C1F78AE0EDE0F3E0DF0198
:10449000282F1D922A95E9F7E3E0F3E0DF011D9252
:1044A0008A95E9F70E94B30AEFE3FCE93197F1F747
:1044B00000C000000E94B30A8091030380FF17C070
:1044C0006FEF82E290E00E94D9296FEF83E290E0E3
:1044D0000E94D9296FEF84E290E00E94D9296FEF02
:1044E0007FEF90E080E00E94F7290E94030F0E9476
:1044F0005E21811102C00E940318279A2F988AE03A
:104500008093800089E1809381008FEF9FEF9093EB
:104510008700809386000E946921849A8C9A82E2A7
:1045200090E00E94C529813209F0F6C483E290E050
:104530000E94C529853009F0EFC484E290E00E9412
:10454000C529843109F0E8C40E945E21811102C0AE
:104550000E94031882E090E00E94C5298093D00158
:104560000E94A914909318038093170383E090E0AE
:104570000E94C529282F30E050E040E02EA33FA341
:1045800048A759A7CA01B9010E945C080E94692185
:104590008091CE01811133C00E945E21811104C03F
:1045A0000E9403180E94D70F88E090E00E94CD2956
:1045B0006093EC027093ED028093EE029093EF0211
:1045C0006E7F71F40E94D70F88E090E00E94CD29A1
:1045D0006093EC027093ED028093EE029093EF02F1
:1045E0000E94CC051092E5028091EC0280FF04C08D
:1045F00060E086950E94241181E08093CE0184E0E2
:1046000091E09093F2028093F10268E1862E912C62
:1046100070E4772EEDE0AE2EE3E0BE2E8091DC015B
:1046200000E112E1853009F4CAC10E94B30A88236F
:1046300059F08FB7F8944091FE015091FF016091BD
:104640000002709101028FBF53E0E52E53E0F52E7A
:10465000E1EDF1E0D70110E000E0702F8D919D9128
:10466000219131912817390709F4BDC1282739272D
:1046700060E0CC24C394D12CA9014C215D21452BB1
:1046800009F4ABC169837A839C012C213D2191E01F
:10469000232B09F490E09B830E94BC078160782F54
:1046A0009D838C8349815A816B818D810E94CD20AD
:1046B000000F111FF801EF52FE4F80819181C82633
:1046C000D926D182C0828091E5028823D1F18091E0
:1046D000E402E091EC02E695E81BE093E802823008
:1046E00009F098C1F0E0EE59FD4FE4910E2F10E073
:1046F00095EBC92E9BE0D92E8091E902882361F0C9
:104700001092E9020E94BC079093E7028093E602B0
:104710001092EB021092EA020E94BC07E091E602BE
:10472000F091E7028E1B9F0B8F3F9F4750F4E00FE5
:10473000F11FF093E702E093E60286EE92E0F601C5
:10474000099586E0E7EFF2E0DE01119601900D9207
:104750008A95E1F7C090F902D090FA020091FB022D
:104760001091FC021092F9021092FA021092FB02D0
:104770001092FC028C2D8D2909F448C08091F5021D
:104780009091F6020E94EE089C018091FE0288231F
:1047900009F4E9C323333105C8F18F3F19F08F5F66
:1047A0008093FE02CC2059F00E941E049FEF1C143F
:1047B0000CF491E0899F802D11248093F902DD2073
:1047C00059F00E941E049FEF1D140CF491E0899F84
:1047D000802D11248093FA023091F9023323B1F035
:1047E0002091FA02222391F045EB3403C0011124F9
:1047F000992309F47BC19093F90255EB25039001AD
:104800001124332309F476C13093FA02802F812BCF
:1048100009F448C08091F3029091F4020E94EE08DE
:104820009C018091FD02882309F498C32536310547
:10483000C8F18F3F19F08F5F8093FD02002359F07C
:104840000E943E049FEF10160CF491E0899F802D8A
:1048500011248093FB02112359F00E943E049FEF24
:1048600011160CF491E0899F802D11248093FC0295
:104870003091FB023323B1F02091FC02222391F00E
:1048800045EB3403C0011124992309F437C19093F7
:10489000FB0255EB250390011124332309F432C1A7
:1048A0003093FC028091F9029091FA02892B909149
:1048B000FB02892B9091FC02892B11F00E94C80702
:1048C00086E0FE013196A7EFB2E001900D928A9545
:1048D000E1F70E9460069091CF01891731F00E94A4
:1048E00060068093CF010E94B8038091DC01843080
:1048F00009F094CE83E08093E9008091E80082FF84
:104900008DCE8091E80090E085FF0CC00E9479096F
:1049100030E2C32ED12C8E010F5F1F4F882309F484
:10492000FFC091E08091E8008B778093E8009923A5
:1049300009F474CEE981E150E33108F073C1F0E08D
:10494000E854F54D0C9424298091DC01843039F130
:1049500080E00E94E10580E00E94B803109202020C
:104960000FB6F894A895809260000FBE7092600018
:1049700083B7817F846083BF83B7816083BF78946E
:10498000889583B78E7F83BF0FB6F894A8958091E2
:104990006000886180936000109260000FBE80917B
:1049A000DB01882361F00E94B30AE3E0F3E0819128
:1049B0009191892B09F09AC2AE16BF06C1F780917A
:1049C000DC01853009F4C0CF0E942D150E946921B9
:1049D0000E9460060E94B80328CE6F5FCC0CDD1CDD
:1049E0006F3009F049CE0F5F1F4F0530110509F0F8
:1049F00034CE8FEF89A38AA31BA20E94BC078160DB
:104A0000782F9DA38CA349A15AA16BA18DA10E94CF
:104A1000CD2059CE863059F4F0E0E15AFD4FE491B3
:104A20000E2F10E089ECC82E8BE0D82E65CE893091
:104A300061F4E695F0E0E45AFD4FE4910E2F10E0AA
:104A4000B9E1CB2EBCE0DB2E57CE8F3061F4E6957A
:104A5000F0E0E75AFD4FE4910E2F10E0A3E4CA2ED8
:104A6000ACE0DA2E49CE853159F4F0E0EA5AFD4F38
:104A7000E4910E2F10E0FCEACF2EFCE0DF2E3CCEBE
:104A800008E210E06AEFC62E6CE0D62E883109F4F9
:104A900033CE833249F4E4E5F2E005911491E9ED77
:104AA000CE2EEBE0DE2E28CE04EF11E05FE9C52E1E
:104AB0005DE0D52E843209F41FCE00ED17E04BEDFA
:104AC000C42E45E0D42E853209F016CE8E2F63E039
:104AD0000E94E228E92FF0E0EF5AFD4FE4910E2FFB
:104AE00010E071EAC72E71E1D72E06CE81E08093E7
:104AF000F90283CE81E08093FA0288CE81E0809330
:104B0000FB02C7CE81E08093FC02CCCE8091F10005
:104B1000D8018D938D01B1E0CB1AD10809F401CFF2
:104B20008091E80085FDF2CF8091E8008B7780933B
:104B3000E8000E947909882399F3F3CE1A8289E06C
:104B40008B8323C08A81823009F4FFC1833009F44A
:104B500043C0813009F066C08FB7F8942091FE0100
:104B60003091FF0140910002509101022EA33FA31A
:104B700048A759A78FBF6EA17FA188A599A50E94BC
:104B80002A296B837C838D839E838091DC01843012
:104B900009F044CD1091E9001F709091EC00892F2D
:104BA000817090FD80E8182B82E08093E90080916D
:104BB000E80080FF0DC050E040E060E270E0CE0110
:104BC00001960E94C9098091E8008E778093E800E1
:104BD0001F701093E90022CDFE013196D7018C9110
:104BE00011969C91B2E0EB0EF11C92838383329676
:104BF0002DE0E21623E0F20689F7C7CF8A818230E2
:104C000089F48B819C81AD81BE818EA39FA3A8A7CF
:104C1000B9A7BC01CD010E942A2985E290E00E943B
:104C2000D929B3CF8FEF8983B0CF4C816B818A8133
:104C30000E9451129827892798279E838D83A5CF9C
:104C4000ED80FE80FE24EF24FE248A810B819EE10C
:104C5000099F80011124A6E98A9F000D111D1124CE
:104C60008C8190E0880F991F080F191F6F2DC801C4
:104C700086960E94D9296E2DC8018796D0CF0E94B2
:104C8000B71483CF8A81893061F48B81B5E08B9F23
:104C9000C00111246FEF70E00E94FC28862F0E9453
:104CA0004A068A818238D1F1F8F4803831F18138AE
:104CB00009F06BCF60E08B810E9424119B81809171
:104CC000EC02911123C08E7F8093EC021092E502DA
:104CD000EFEFF0E722E0E150F0402040E1F700C0C4
:104CE00000000E94550B51CF833809F04ECF20E0D1
:104CF0004091EF026C818B8106C020E04B81609176
:104D0000EE028091ED020E942C103FCF81608093D3
:104D1000EC0260E086950E94241137CF8B8180934E
:104D2000F00233CF8A81893059F08A30C1F081385E
:104D300021F1B8F4803809F028CF8091EF0200CF3C
:104D4000809180028695869586953FEF839FC0016E
:104D5000112465E070E00E94FC286B8316CF1B8253
:104D600014CF823891F0833809F00FCF8091ED0293
:104D70008B838091EE028C8308CF8091EC0280FFC0
:104D800002C08695DDCE80E0DBCE8091F002D8CEE9
:104D9000809180020E9428158091EC029091ED0292
:104DA000A091EE02B091EF028EA39FA3A8A7B9A78E
:104DB000BC01CD010E94C30FE8CE80E18A83E5CE1D
:104DC00081E08A8382E8BCCE0A811B8110270127FB
:104DD0001027DE0111966D018C817D01E80EF11C1A
:104DE000C80182589D4FEC14FD0409F4CECE023860
:104DF000B1E01B0750F40E94C529F60184830F5FC0
:104E00001F4FBFEFCB1ADB0AEBCFD60114961C92D3
:104E1000F6CF0A811B81102701271027FE0131964A
:104E20006F018C817F01E80EF11CC80182589D4FF3
:104E3000CE14DF0409F4A9CE0238F1E01F0728F4EC
:104E4000D60114966C910E94D929BFEFCB1ADB0AC8
:104E50000F5F1F4FEACF0E94181597CE84E0AECFA8
:104E60000A811B81102701271027FE0131966F014F
:104E70008C817F01E80EF11CC8018696EC14FD04BC
:104E800009F483CE0835F2E01F0758F40E94C529C3
:104E9000D60114968C930F5F1F4FFFEFCF1ADF0AD6
:104EA000EBCFF6011482F7CF0A811B81102701276F
:104EB00010279E012F5F3F4F69018C817901E80E19
:104EC000F11CC8018696EC14FD0409F45ECE083589
:104ED00032E0130728F4D60114966C910E94D92968
:104EE000BFEFCB1ADB0A0F5F1F4FEBCF09BD19BD18
:104EF00009B400FEFDCF8091D8008F7D8093D8004B
:104F00008091E00082608093E0008091E00081FD6C
:104F1000FCCF0E942D1553CD60E085E290E00E9409
:104F2000D9290E94B7140E94181561E282E290E02C
:104F30000E94D92965E083E290E00E94D92964E1CA
:104F400084E290E00E94D929FFCA85E290E00E94A5
:104F5000C5291B821C821D828E8317CE2D323140C3
:104F600008F069CC9FCC2D32314008F018CC4ECCE3
:104F70001F920F920FB60F9211242F933F934F93CE
:104F80005F936F937F938F939F93AF93BF93EF93B1
:104F9000FF938091E10082FF09C08091E20082FFCF
:104FA00005C08091E1008B7F8093E1008091DA0061
:104FB00080FF24C08091D80080FF20C08091DA005B
:104FC0008E7F8093DA008091D90080FF99C080E1C4
:104FD00089BD82E189BD09B400FEFDCF81E08093E7
:104FE000DC018091C501811109C00E94AA090E94BB
:104FF000520A8091E20084608093E2008091E10097
:1050000080FF17C08091E20080FF13C08091E20012
:105010008E7F8093E2008091E20080618093E200C5
:105020008091D80080628093D80019BC85E080937D
:10503000DC018091E10084FF27C08091E20084FFC1
:1050400023C080E189BD82E189BD09B400FEFDCFA6
:105050008091D8008F7D8093D8008091E1008F7E71
:105060008093E1008091E2008F7E8093E200809146
:10507000E20081608093E2008091C401882309F4FA
:1050800045C084E08093DC018091E10083FF27C06C
:105090008091E20083FF23C08091E100877F8093AD
:1050A000E10082E08093DC011092C4018091E10074
:1050B0008E7F8093E1008091E2008E7F8093E200FA
:1050C0008091E20080618093E20042E060E080E055
:1050D0000E94220A8091F00088608093F000FF9186
:1050E000EF91BF91AF919F918F917F916F915F9160
:1050F0004F913F912F910F900FBE0F901F901895D9
:1051000019BC1092DC011092C50178CF8091E300A8
:1051100087FD02C081E0B6CF83E0B4CF1F920F922B
:105120000FB60F9211242F933F934F935F936F937A
:105130007F938F939F93AF93BF93CF93DF93EF931F
:10514000FF93D091E900DF708091EC00C82FC1700F
:1051500080FDC0E81092E9008091F000877F809385
:10516000F00078940E9442151092E9008091F000BE
:1051700088608093F000CD2BCF70C093E900FF9141
:10518000EF91DF91CF91BF91AF919F918F917F91DF
:105190006F915F914F913F912F910F900FBE0F90A4
:1051A0001F901895DB018F939F930E942C2ABF912B
:1051B000AF91A29F800D911DA39F900DB29F900D66
:1051C00011240895991B79E004C0991F961708F0DF
:1051D000961B881F7A95C9F78095089587FB082E3E
:1051E000062687FD819567FD61950E94E2280EF4F1
:1051F000919507FC81950895AA1BBB1B51E107C03F
:10520000AA1FBB1FA617B70710F0A61BB70B881F56
:10521000991F5A95A9F780959095BC01CD010895E5
:1052200097FB072E16F4009407D077FD09D00E9453
:10523000FC2807FC05D03EF4909581959F4F08957A
:10524000709561957F4F0895EE0FFF1F0590F491C3
:10525000E02D0994692796276927782787277827DB
:1052600008950E94612A332312F48A1B9B0B0C942D
:105270003B290E94612AB7FF0895821B930B089572
:10528000CF92DF92EF92FF92CF93DF93CDB7DEB74D
:105290002A970FB6F894DEBF0FBECDBF89879A87D5
:1052A000A985BA852D913D914D915C9129833A83D1
:1052B0004B835C83232B242B252B41F424E239EDF3
:1052C0004BE557E029833A834B835C8369817A817C
:1052D0008B819C812DE133EF41E050E00E940D2A4B
:1052E00069017A01A7EAB1E49B01AC010E942C2A72
:1052F00069837A838B839C83ACEEB4EFA70196011C
:105300000E943A2A9B01AC0189819A81AB81BC81C0
:10531000820F931FA41FB51FB7FF03C00197A109F8
:10532000B048E985FA8580839183A283B3839F7710
:105330002A960FB6F894DEBF0FBECDBFDF91CF9196
:10534000FF90EF90DF90CF9008950E94402908953C
:1053500080E091E00E9440290895B0E0A0E08093B1
:10536000000190930101A0930201B09303010895FD
:10537000FC014150504030F001900616D1F73197B2
:10538000CF010895882799270895F999FECF92BDF6
:1053900081BDF89A992780B50895A6E1B0E044E070
:1053A00050E00C94FF29A8E1B0E042E050E00C94FA
:1053B000FF29262FF999FECF92BD81BDF89A01975A
:1053C00000B4021639F01FBA20BD0FB6F894FA9A4D
:1053D000F99A0FBE08950396272F0E94DA290E949A
:1053E000D929252F0E94DA29242F0C94DA29019635
:1053F000272F0E94DA290C94D929DC01CB01FC016A
:10540000F999FECF06C0F2BDE1BDF89A319600B41D
:105410000D9241505040B8F70895052E97FB1EF4A9
:1054200000940E94242A57FD07D00E943F2A07FCBF
:1054300003D04EF40C94242A509540953095219534
:105440003F4F4F4F5F4F08959095809570956195B0
:105450007F4F8F4F9F4F08950E94612AA59F900D07
:10546000B49F900DA49F800D911D11240895B7FF46
:105470000C942C2A0E942C2A821B930B0895A1E2E3
:105480001A2EAA1BBB1BFD010DC0AA1FBB1FEE1FBE
:10549000FF1FA217B307E407F50720F0A21BB30B09
:1054A000E40BF50B661F771F881F991F1A9469F785
:1054B00060957095809590959B01AC01BD01CF01E1
:1054C0000895A29FB001B39FC001A39F700D811DDD
:1054D0001124911DB29F700D811D1124911D0895FD
:1054E000F894FFCF24164C16EB174C16EB177F16CB
:1054F000A016EB179C17A917C01AC61ACA1AD81AF1
:10550000DC1AE01AE41AEA1AF21AF61AFA1AFE1A61
:105510000A1B0E1B121B161B1C1B3A1B241BCE1A2C
:10552000D41A021B061BEE1A201B301B431B491BFF
:105530005D1B8A1B911B961B9B1BA01BA51BAA1BFB
:10554000AF1BB41BB91BBE1BC11BC61BC91BCC1B8D
:10555000CF1BD21BD51BD81B3C1C3C1CB51CB51C3F
:105560000F1D291D721C721C341D311E401E401E51
:105570009E25A225FE25152620263F264226922678
:10558000C82612261226DD26E026E42609272B2728
:065590002E2730275427EE
:1055960001000000FD08270F6A0FBB0FBF0F0101B6
:1055A600010201191A1B1C1D1E1F202122000000CA
:1055B600004022B684016201AC00D601EF010F0261
:1055C6000001020202020606060909090909090F75
:1055D6000F0F0F0F0F151515181919191919191974
:1055E600191919232425252525252590919293956A
:1055F600F0F1C66766369431F7353497963332E262
:1056060000E900EA00B500B600B700CD008301CC82
:10561600008A019201940121022302240225022616
:0E5626000227022A02B300B4006F00700000D9
:00000001FF
